{"abi":[{"type":"constructor","inputs":[{"name":"paxgAddress","type":"address","internalType":"address"},{"name":"usdcAddress","type":"address","internalType":"address"},{"name":"_waitTime","type":"uint256","internalType":"uint256"}],"stateMutability":"nonpayable"},{"type":"function","name":"allowedPAXGAmount","inputs":[],"outputs":[{"name":"","type":"uint256","internalType":"uint256"}],"stateMutability":"view"},{"type":"function","name":"allowedUSDCAmount","inputs":[],"outputs":[{"name":"","type":"uint256","internalType":"uint256"}],"stateMutability":"view"},{"type":"function","name":"claimTestTokens","inputs":[],"outputs":[],"stateMutability":"nonpayable"},{"type":"function","name":"getAllowedTime","inputs":[{"name":"account","type":"address","internalType":"address"}],"outputs":[{"name":"","type":"uint256","internalType":"uint256"}],"stateMutability":"view"},{"type":"function","name":"isAllowedForTransaction","inputs":[{"name":"account","type":"address","internalType":"address"}],"outputs":[{"name":"","type":"bool","internalType":"bool"}],"stateMutability":"view"},{"type":"function","name":"owner","inputs":[],"outputs":[{"name":"","type":"address","internalType":"address"}],"stateMutability":"view"},{"type":"function","name":"paxgInstance","inputs":[],"outputs":[{"name":"","type":"address","internalType":"contract ERC20"}],"stateMutability":"view"},{"type":"function","name":"renounceOwnership","inputs":[],"outputs":[],"stateMutability":"nonpayable"},{"type":"function","name":"setWaitTime","inputs":[{"name":"_waitTime","type":"uint256","internalType":"uint256"}],"outputs":[],"stateMutability":"nonpayable"},{"type":"function","name":"transferOwnership","inputs":[{"name":"newOwner","type":"address","internalType":"address"}],"outputs":[],"stateMutability":"nonpayable"},{"type":"function","name":"usdcInstance","inputs":[],"outputs":[{"name":"","type":"address","internalType":"contract ERC20"}],"stateMutability":"view"},{"type":"function","name":"userUnlockTime","inputs":[{"name":"","type":"address","internalType":"address"}],"outputs":[{"name":"","type":"uint256","internalType":"uint256"}],"stateMutability":"view"},{"type":"function","name":"waitTime","inputs":[],"outputs":[{"name":"","type":"uint256","internalType":"uint256"}],"stateMutability":"view"},{"type":"event","name":"FaucetClaimed","inputs":[{"name":"user","type":"address","indexed":true,"internalType":"address"},{"name":"nextUnlockTime","type":"uint256","indexed":false,"internalType":"uint256"}],"anonymous":false},{"type":"event","name":"OwnershipTransferred","inputs":[{"name":"previousOwner","type":"address","indexed":true,"internalType":"address"},{"name":"newOwner","type":"address","indexed":true,"internalType":"address"}],"anonymous":false},{"type":"error","name":"AlreadyClaimed","inputs":[{"name":"unlockTime","type":"uint256","internalType":"uint256"}]},{"type":"error","name":"InsufficientFunds","inputs":[]},{"type":"error","name":"OwnableInvalidOwner","inputs":[{"name":"owner","type":"address","internalType":"address"}]},{"type":"error","name":"OwnableUnauthorizedAccount","inputs":[{"name":"account","type":"address","internalType":"address"}]},{"type":"error","name":"TransferFailed","inputs":[]}],"bytecode":{"object":"0x608060405234801561000f575f5ffd5b5060405161108838038061108883398181016040528101906100319190610303565b335f73ffffffffffffffffffffffffffffffffffffffff168173ffffffffffffffffffffffffffffffffffffffff16036100a2575f6040517f1e4fbdf70000000000000000000000000000000000000000000000000000000081526004016100999190610362565b60405180910390fd5b6100b1816101b160201b60201c565b505f73ffffffffffffffffffffffffffffffffffffffff168373ffffffffffffffffffffffffffffffffffffffff161415801561011a57505f73ffffffffffffffffffffffffffffffffffffffff168273ffffffffffffffffffffffffffffffffffffffff1614155b610122575f5ffd5b8260035f6101000a81548173ffffffffffffffffffffffffffffffffffffffff021916908373ffffffffffffffffffffffffffffffffffffffff1602179055508160045f6101000a81548173ffffffffffffffffffffffffffffffffffffffff021916908373ffffffffffffffffffffffffffffffffffffffff1602179055508060018190555050505061037b565b5f5f5f9054906101000a900473ffffffffffffffffffffffffffffffffffffffff169050815f5f6101000a81548173ffffffffffffffffffffffffffffffffffffffff021916908373ffffffffffffffffffffffffffffffffffffffff1602179055508173ffffffffffffffffffffffffffffffffffffffff168173ffffffffffffffffffffffffffffffffffffffff167f8be0079c531659141344cd1fd0a4f28419497f9722a3daafe3b4186f6b6457e060405160405180910390a35050565b5f5ffd5b5f73ffffffffffffffffffffffffffffffffffffffff82169050919050565b5f61029f82610276565b9050919050565b6102af81610295565b81146102b9575f5ffd5b50565b5f815190506102ca816102a6565b92915050565b5f819050919050565b6102e2816102d0565b81146102ec575f5ffd5b50565b5f815190506102fd816102d9565b92915050565b5f5f5f6060848603121561031a57610319610272565b5b5f610327868287016102bc565b9350506020610338868287016102bc565b9250506040610349868287016102ef565b9150509250925092565b61035c81610295565b82525050565b5f6020820190506103755f830184610353565b92915050565b610d00806103885f395ff3fe608060405234801561000f575f5ffd5b50600436106100cd575f3560e01c80639c2006c11161008a578063df351aaf11610064578063df351aaf146101db578063e47a4c3c146101f7578063ee93f9e614610227578063f2fde38b14610245576100cd565b80639c2006c11461016f578063b03585171461019f578063ccca123b146101bd576100cd565b806310f00ae1146100d15780634f33f777146100db578063715018a6146100f957806381c2f874146101035780638da5cb5b1461012157806392379fd31461013f575b5f5ffd5b6100d9610261565b005b6100e36106a3565b6040516100f091906109e9565b60405180910390f35b6101016106ac565b005b61010b6106bf565b60405161011891906109e9565b60405180910390f35b6101296106cc565b6040516101369190610a41565b60405180910390f35b61015960048036038101906101549190610a88565b6106f3565b60405161016691906109e9565b60405180910390f35b61018960048036038101906101849190610a88565b610739565b60405161019691906109e9565b60405180910390f35b6101a761074e565b6040516101b49190610b0e565b60405180910390f35b6101c5610773565b6040516101d291906109e9565b60405180910390f35b6101f560048036038101906101f09190610b51565b610779565b005b610211600480360381019061020c9190610a88565b61078b565b60405161021e9190610b96565b60405180910390f35b61022f6107d9565b60405161023c9190610b0e565b60405180910390f35b61025f600480360381019061025a9190610a88565b6107fe565b005b5f33905061026e8161078b565b6102ec5760025f8273ffffffffffffffffffffffffffffffffffffffff1673ffffffffffffffffffffffffffffffffffffffff1681526020019081526020015f20546040517fb3167bfa0000000000000000000000000000000000000000000000000000000081526004016102e391906109e9565b60405180910390fd5b68056bc75e2d6310000060035f9054906101000a900473ffffffffffffffffffffffffffffffffffffffff1673ffffffffffffffffffffffffffffffffffffffff166370a08231306040518263ffffffff1660e01b81526004016103509190610a41565b602060405180830381865afa15801561036b573d5f5f3e3d5ffd5b505050506040513d601f19601f8201168201806040525081019061038f9190610bc3565b108061043757506402540be40060045f9054906101000a900473ffffffffffffffffffffffffffffffffffffffff1673ffffffffffffffffffffffffffffffffffffffff166370a08231306040518263ffffffff1660e01b81526004016103f69190610a41565b602060405180830381865afa158015610411573d5f5f3e3d5ffd5b505050506040513d601f19601f820116820180604052508101906104359190610bc3565b105b1561046e576040517f356680b700000000000000000000000000000000000000000000000000000000815260040160405180910390fd5b5f6001544261047d9190610c1b565b90508060025f8473ffffffffffffffffffffffffffffffffffffffff1673ffffffffffffffffffffffffffffffffffffffff1681526020019081526020015f20819055505f60035f9054906101000a900473ffffffffffffffffffffffffffffffffffffffff1673ffffffffffffffffffffffffffffffffffffffff1663a9059cbb8468056bc75e2d631000006040518363ffffffff1660e01b8152600401610527929190610c4e565b6020604051808303815f875af1158015610543573d5f5f3e3d5ffd5b505050506040513d601f19601f820116820180604052508101906105679190610c9f565b90505f60045f9054906101000a900473ffffffffffffffffffffffffffffffffffffffff1673ffffffffffffffffffffffffffffffffffffffff1663a9059cbb856402540be4006040518363ffffffff1660e01b81526004016105cb929190610c4e565b6020604051808303815f875af11580156105e7573d5f5f3e3d5ffd5b505050506040513d601f19601f8201168201806040525081019061060b9190610c9f565b9050811580610618575080155b1561064f576040517f90b8ec1800000000000000000000000000000000000000000000000000000000815260040160405180910390fd5b8373ffffffffffffffffffffffffffffffffffffffff167f5d4f415c63cd8a5874d9d291cdd64cec37e5dc236d90d659c958d109d78074b38460405161069591906109e9565b60405180910390a250505050565b6402540be40081565b6106b4610882565b6106bd5f610909565b565b68056bc75e2d6310000081565b5f5f5f9054906101000a900473ffffffffffffffffffffffffffffffffffffffff16905090565b5f60025f8373ffffffffffffffffffffffffffffffffffffffff1673ffffffffffffffffffffffffffffffffffffffff1681526020019081526020015f20549050919050565b6002602052805f5260405f205f915090505481565b60045f9054906101000a900473ffffffffffffffffffffffffffffffffffffffff1681565b60015481565b610781610882565b8060018190555050565b5f5f60025f8473ffffffffffffffffffffffffffffffffffffffff1673ffffffffffffffffffffffffffffffffffffffff1681526020019081526020015f2054905080421015915050919050565b60035f9054906101000a900473ffffffffffffffffffffffffffffffffffffffff1681565b610806610882565b5f73ffffffffffffffffffffffffffffffffffffffff168173ffffffffffffffffffffffffffffffffffffffff1603610876575f6040517f1e4fbdf700000000000000000000000000000000000000000000000000000000815260040161086d9190610a41565b60405180910390fd5b61087f81610909565b50565b61088a6109ca565b73ffffffffffffffffffffffffffffffffffffffff166108a86106cc565b73ffffffffffffffffffffffffffffffffffffffff1614610907576108cb6109ca565b6040517f118cdaa70000000000000000000000000000000000000000000000000000000081526004016108fe9190610a41565b60405180910390fd5b565b5f5f5f9054906101000a900473ffffffffffffffffffffffffffffffffffffffff169050815f5f6101000a81548173ffffffffffffffffffffffffffffffffffffffff021916908373ffffffffffffffffffffffffffffffffffffffff1602179055508173ffffffffffffffffffffffffffffffffffffffff168173ffffffffffffffffffffffffffffffffffffffff167f8be0079c531659141344cd1fd0a4f28419497f9722a3daafe3b4186f6b6457e060405160405180910390a35050565b5f33905090565b5f819050919050565b6109e3816109d1565b82525050565b5f6020820190506109fc5f8301846109da565b92915050565b5f73ffffffffffffffffffffffffffffffffffffffff82169050919050565b5f610a2b82610a02565b9050919050565b610a3b81610a21565b82525050565b5f602082019050610a545f830184610a32565b92915050565b5f5ffd5b610a6781610a21565b8114610a71575f5ffd5b50565b5f81359050610a8281610a5e565b92915050565b5f60208284031215610a9d57610a9c610a5a565b5b5f610aaa84828501610a74565b91505092915050565b5f819050919050565b5f610ad6610ad1610acc84610a02565b610ab3565b610a02565b9050919050565b5f610ae782610abc565b9050919050565b5f610af882610add565b9050919050565b610b0881610aee565b82525050565b5f602082019050610b215f830184610aff565b92915050565b610b30816109d1565b8114610b3a575f5ffd5b50565b5f81359050610b4b81610b27565b92915050565b5f60208284031215610b6657610b65610a5a565b5b5f610b7384828501610b3d565b91505092915050565b5f8115159050919050565b610b9081610b7c565b82525050565b5f602082019050610ba95f830184610b87565b92915050565b5f81519050610bbd81610b27565b92915050565b5f60208284031215610bd857610bd7610a5a565b5b5f610be584828501610baf565b91505092915050565b7f4e487b71000000000000000000000000000000000000000000000000000000005f52601160045260245ffd5b5f610c25826109d1565b9150610c30836109d1565b9250828201905080821115610c4857610c47610bee565b5b92915050565b5f604082019050610c615f830185610a32565b610c6e60208301846109da565b9392505050565b610c7e81610b7c565b8114610c88575f5ffd5b50565b5f81519050610c9981610c75565b92915050565b5f60208284031215610cb457610cb3610a5a565b5b5f610cc184828501610c8b565b9150509291505056fea2646970667358221220eb7e45053fa2434d0c0a63ad1f41caa8fe0baab2ba164ee59d21940240557b5064736f6c634300081e0033","linkReferences":{}},"methodIdentifiers":{"allowedPAXGAmount()":"81c2f874","allowedUSDCAmount()":"4f33f777","claimTestTokens()":"10f00ae1","getAllowedTime(address)":"92379fd3","isAllowedForTransaction(address)":"e47a4c3c","owner()":"8da5cb5b","paxgInstance()":"ee93f9e6","renounceOwnership()":"715018a6","setWaitTime(uint256)":"df351aaf","transferOwnership(address)":"f2fde38b","usdcInstance()":"b0358517","userUnlockTime(address)":"9c2006c1","waitTime()":"ccca123b"},"id":22}